:020000040002F8
:1060000028690020C1630200C9630200CB6302005B
:10601000CD630200CF630200D163020000000000E4
:10602000000000000000000000000000D363020038
:10603000D563020000000000D7630200D9630200AC
:10604000DB630200DB6302007D9C020049990200D1
:10605000DB630200DB63020035970200DB630200B2
:10606000DB630200DB630200DB630200DB63020030
:10607000DB630200FD980200DB630200DB630200C9
:10608000DB63020025990200DB630200DB63020090
:1060900059990200DB6302005D990200DB63020094
:1060A000DB630200DB630200DB630200DB630200F0
:1060B000DB630200DB630200000000000000000060
:1060C000DB630200DB630200DB630200DB630200D0
:1060D000DB630200DB630200DB6302000000000000
:1060E00000000000000000000000000000000000B0
:1060F00000000000000000000000000000000000A0
:10610000000000000000000000000000000000008F
:10611000000000000000000000000000000000007F
:10612000000000000000000000000000000000006F
:10613000000000000000000000000000000000005F
:10614000000000000000000000000000000000004F
:10615000000000000000000000000000000000003F
:10616000000000000000000000000000000000002F
:10617000000000000000000000000000000000001F
:10618000000000000000000000000000000000000F
:1061900000000000000000000000000000000000FF
:1061A00000000000000000000000000000000000EF
:1061B00000000000000000000000000000000000DF
:1061C00000000000000000000000000000000000CF
:1061D00000000000000000000000000000000000BF
:1061E00000000000000000000000000000000000AF
:1061F000000000000000000000000000000000009F
:10620000DFF80CD001F072FB0048004705E3020004
:106210002869002030B450E8012F93B2C489234488
:106220008489A34228BF1B1B0489A34202BFBFF37A
:106230002F8F002007E0C3EA020340E80134002C5E
:10624000E9D14FF001000A6030BC704750E8012FDF
:10625000C2EA024240E801210029F7D1704730B478
:1062600050E8022F1FFAA2F3C488A34202BFBFF373
:106270002F8F00200DE0C48923448489A34228BFC6
:106280001B1BC2EA034340E80234002CE8D14FF064
:1062900001000A6030BC704750E8022FC2EA224277
:1062A00040E802210029F7D17047034653E8022F46
:1062B000D988B2EB324F4FF0000017BF92B241EADB
:1062C000014142EA014104E05A68B2EB324F08BF93
:1062D000012043E80212002AE8D1704730B4044696
:1062E00054E8000F0D4644E80053002BF8D1156028
:1062F00030BC704730B4044654E8000F40EA010552
:1063000044E80053002BF7D1156030BC704730B41F
:10631000044654E8000F00EA010544E80053002B4E
:10632000F7D1156030BC704730B4044654E8000F14
:1063300080EA010544E80053002BF7D1156030BC1A
:10634000704730B4044654E8000F00EB010544E800
:106350000053002BF7D1156030BC704730B40446B1
:1063600054E8000FA0EB010544E80053002BF7D1DF
:10637000156030BC704770B404464FF0000054E81C
:10638000006F0D68AE4207BF44E80023012044E8D7
:1063900000630E60002B1CBF0020F0E770BC70474C
:1063A00030B4044654E8000F88422CBF451A054615
:1063B00044E80053002BF5D1156030BC7047000055
:1063C0000648804706480047FEE7FEE7FEE7FEE78F
:1063D000FEE7FEE7FEE7FEE7FEE7FEE76199020063
:1063E0000162020030B44FF0000310F8014B11F8C5
:1063F000015B013A84EA050443EA0403F5D1A3F101
:1064000001034FEAD37030BC70474FF0000310F81F
:10641000012B013943EA0203F9D1A3F101034FEA49
:10642000D37070472DE9F00791E8F807B2E8021041
:106430005B1854EB0C04B2E802104D4156EB0C060D
:10644000B2E802104F4158EB0C08B2E8021059EBC9
:1064500001095AEB0C0A4FF0260261EB010122EA16
:1064600001015B1854F1000455F1000556F10006D6
:1064700057F1000758F1000859F100095AF1000AD4
:1064800061EB010122EA01010B4480E8F807BDE855
:10649000F00770472DE9F00791E8F807B2E802101D
:1064A0005B1A74EB0C04B2E802108D4176EB0C061B
:1064B000B2E802108F4178EB0C08B2E8021079EBD9
:1064C00001097AEB0C0A4FF0260261EB010102EAA6
:1064D00001015B1A74F1000475F1000576F1000604
:1064E00077F1000778F1000879F100097AF1000AE4
:1064F00061EB010102EA0101A3EB010380E8F80767
:10650000BDE8F00770470A462DE9F04F92E8F00F1A
:106510002DE9F30F87B091E839000999A0FB0178C4
:106520004FF00009E3FB01894FF0000AE4FB019AF8
:106530004FF0000BE5FB01AB0D994FF0000CE0FBB9
:1065400001BC4FF0000EE3FB01CE4FF00002E4FB74
:1065500001E24FF00006E5FB012600970A994FF093
:106560000007E0FB018719EB07094FF0000747EB35
:106570000707E3FB01971AEB070A4FF0000747EB09
:106580000707E4FB01A71BEB070B4FF0000747EBE6
:106590000707E5FB01B70E991CEB070C4FF000074E
:1065A00047EB0707E0FB01C71EEB070E4FF00007A4
:1065B00047EB0707E3FB01E7D2194FF0000747EB72
:1065C0000707E4FB0127F6194FF0000747EB070721
:1065D000E5FB0167CDF804800B994FF00008E0FB64
:1065E00001981AEB080A4FF0000848EB0808E3FB93
:1065F00001A81BEB080B4FF0000848EB0808E4FB70
:1066000001B81CEB080C4FF0000848EB0808E5FB4C
:1066100001C80F991EEB080E4FF0000848EB080860
:10662000E0FB01E812EB08024FF0000848EB080815
:10663000E3FB012816EB08064FF0000848EB0808BA
:10664000E4FB016817EB08074FF0000848EB080867
:10665000E5FB0178CDF808900C994FF00009E0FBBC
:1066600001A91BEB090B4FF0000949EB0909E3FBFA
:1066700001B91CEB090C4FF0000949EB0909E4FBD7
:1066800001C91EEB090E4FF0000949EB0909E5FBB2
:1066900001E9109912EB09024FF0000949EB0909D1
:1066A000E0FB012916EB09064FF0000949EB090947
:1066B000E3FB016917EB09074FF0000949EB0909F2
:1066C000E4FB017918EB09084FF0000949EB0909CF
:1066D000E5FB0189CDF80CA0089901F1100191E8C2
:1066E000390009994FF0000AE0FB01BA1CEB0A0CD3
:1066F0004FF0000A4AEB0A0AE3FB01CA1EEB0A0E3E
:106700004FF0000A4AEB0A0AE4FB01EA12EB0A0224
:106710004FF0000A4AEB0A0AE5FB012A0D9916EB35
:106720000A064FF0000A4AEB0A0AE0FB016A17EB7F
:106730000A074FF0000A4AEB0A0AE3FB017A18EB5A
:106740000A084FF0000A4AEB0A0AE4FB018A19EB37
:106750000A094FF0000A4AEB0A0AE5FB019ACDF854
:1067600010B00A994FF0000BE0FB01CB1EEB0B0EB3
:106770004FF0000B4BEB0B0BE3FB01EB12EB0B02AF
:106780004FF0000B4BEB0B0BE4FB012B16EB0B0656
:106790004FF0000B4BEB0B0BE5FB016B0E9917EB6E
:1067A0000B074FF0000B4BEB0B0BE0FB017B18EBE7
:1067B0000B084FF0000B4BEB0B0BE3FB018B19EBC2
:1067C0000B094FF0000B4BEB0B0BE4FB019B1AEB9F
:1067D0000B0A4FF0000B4BEB0B0BE5FB01ABCDF8BD
:1067E00014C00B994FF0000CE0FB01EC12EB0C0213
:1067F0004FF0000C4CEB0C0CE3FB012C16EB0C06E1
:106800004FF0000C4CEB0C0CE4FB016C17EB0C078D
:106810004FF0000C4CEB0C0CE5FB017C0F9918EBD6
:106820000C084FF0000C4CEB0C0CE0FB018C19EB4E
:106830000C094FF0000C4CEB0C0CE3FB019C1AEB29
:106840000C0A4FF0000C4CEB0C0CE4FB01AC1BEB06
:106850000C0B4FF0000C4CEB0C0CE5FB01BCCDF825
:1068600018E00C994FF0000EE0FB012E16EB0E061F
:106870004FF0000E4EEB0E0EE3FB016E17EB0E0712
:106880004FF0000E4EEB0E0EE4FB017E18EB0E08EF
:106890004FF0000E4EEB0E0EE5FB018E109919EB3A
:1068A0000E094FF0000E4EEB0E0EE0FB019E1AEBB0
:1068B0000E0A4FF0000E4EEB0E0EE3FB01AE1BEB8B
:1068C0000E0B4FF0000E4EEB0E0EE4FB01BE1CEB68
:1068D0000E0C4FF0000E4EEB0E0EE5FB01CE4FF00E
:1068E0002601DDE900344FF00000E6FB01302418FA
:1068F0004FF0000040EB0000E7FB0140DDE90256ED
:106900002D184FF0000040EB0000E8FB0150361856
:106910004FF0000040EB0000E9FB0160DDE9048975
:1069200018EB00084FF0000040EB0000EAFB01808C
:1069300019EB00094FF0000040EB0000EBFB019069
:10694000DDF818A01AEB000A4FF0000040EB000041
:10695000ECFB01A012184FF0000040EB0000EEFB32
:10696000012000FB01F01B1854F1000455F1000553
:1069700056F1000658F1000759F100085AF10009D4
:1069800052F1000A60EB000021EA0000034407987E
:1069900080E8F80711B0BDE8F08F2DE9F00791E825
:1069A000F0174EF6A1514FEA4101A4FB01234FF02D
:1069B0000004E5FB01344FF00005E6FB01454FF014
:1069C0000006E7FB01564FF00007E8FB01674FF0B8
:1069D0000008E9FB01784FF00009EAFB01894FF05C
:1069E000000AECFB019A4FF026010AFB01FA12EBB8
:1069F0000A0253F1000354F1000455F1000556F169
:106A0000000657F1000758F1000859F100096AEB38
:106A10000A0A21EA0A010A4480E8FC03BDE8F007FB
:106A200070472DE9F00390E8F8134FEAEC7202F09A
:106A300013022CF0004C02F11301591854F100011B
:106A400055F1000156F1000157F1000158F1000124
:106A500059F100015CF100014FEAE17101F013010D
:106A600011445B1854F1000455F1000556F100067D
:106A700057F1000758F1000859F100094CF1000CDA
:106A80002CF0004C80E8F813BDE8F003704700BF1D
:106A90002DE9F00791E8F807B2E802105B1854EB13
:106AA0000C04B2E802104D4156EB0C06B2E802109D
:106AB0004F4158EB0C08B2E8021059EB01095AEBB0
:106AC0000C0A8941B3F1FF3374F1FF3475F1FF35DE
:106AD00076F1000677F1000778F1000879F10109F5
:106AE0007AF1FF3A51F100014A425B184C414D41A5
:106AF00056F1000657F1000758F1000859EB02095A
:106B00005AEB010A80E8F807BDE8F00770472DE965
:106B1000F00791E8F807B2E802105B1A74EB0C0476
:106B2000B2E802108D4176EB0C06B2E802108F41FC
:106B300078EB0C08B2E8021079EB01097AEB0C0A49
:106B400089414A425B184C414D4156F1000657F1CC
:106B5000000758F1000859EB02095AEB010A80E8D6
:106B6000F807BDE8F00770470A462DE9F04F92E8B4
:106B7000F00F2DE9F30F87B091E839000999A0FBD8
:106B800001784FF00009E3FB01894FF0000AE4FBB4
:106B9000019A4FF0000BE5FB01AB0D994FF0000C93
:106BA000E0FB01BC4FF0000EE3FB01CE4FF0000212
:106BB000E4FB01E24FF00006E5FB012600970A998D
:106BC0004FF00007E0FB018719EB07094FF00007C2
:106BD00047EB0707E3FB01971AEB070A4FF00007A3
:106BE00047EB0707E4FB01A71BEB070B4FF0000780
:106BF00047EB0707E5FB01B70E991CEB070C4FF0BD
:106C0000000747EB0707E0FB01C71EEB070E4FF03D
:106C1000000747EB0707E3FB01E7D2194FF0000736
:106C200047EB0707E4FB0127F6194FF0000747EB96
:106C30000707E5FB0167CDF804800B994FF00008CA
:106C4000E0FB01981AEB080A4FF0000848EB08082F
:106C5000E3FB01A81BEB080B4FF0000848EB08080A
:106C6000E4FB01B81CEB080C4FF0000848EB0808E7
:106C7000E5FB01C80F991EEB080E4FF0000848EB2A
:106C80000808E0FB01E812EB08024FF0000848EBAF
:106C90000808E3FB012816EB08064FF0000848EB54
:106CA0000808E4FB016817EB08074FF0000848EB01
:106CB0000808E5FB0178CDF808900C994FF0000921
:106CC000E0FB01A91BEB090B4FF0000949EB090997
:106CD000E3FB01B91CEB090C4FF0000949EB090972
:106CE000E4FB01C91EEB090E4FF0000949EB09094D
:106CF000E5FB01E9109912EB09024FF0000949EB9D
:106D00000909E0FB012916EB09064FF0000949EBE0
:106D10000909E3FB016917EB09074FF0000949EB8B
:106D20000909E4FB017918EB09084FF0000949EB68
:106D30000909E5FB0189CDF80CA0089901F11001C2
:106D400091E8390009994FF0000AE0FB01BA1CEB09
:106D50000A0C4FF0000A4AEB0A0AE3FB01CA1EEBD9
:106D60000A0E4FF0000A4AEB0A0AE4FB01EA12EBB2
:106D70000A024FF0000A4AEB0A0AE5FB012A0D99C4
:106D800016EB0A064FF0000A4AEB0A0AE0FB016A1A
:106D900017EB0A074FF0000A4AEB0A0AE3FB017AF5
:106DA00018EB0A084FF0000A4AEB0A0AE4FB018AD2
:106DB00019EB0A094FF0000A4AEB0A0AE5FB019AAF
:106DC000CDF810B00A994FF0000BE0FB01CB1EEBA1
:106DD0000B0E4FF0000B4BEB0B0BE3FB01EB12EB3D
:106DE0000B024FF0000B4BEB0B0BE4FB012B16EBF4
:106DF0000B064FF0000B4BEB0B0BE5FB016B0E99F9
:106E000017EB0B074FF0000B4BEB0B0BE0FB017B81
:106E100018EB0B084FF0000B4BEB0B0BE3FB018B5C
:106E200019EB0B094FF0000B4BEB0B0BE4FB019B39
:106E30001AEB0B0A4FF0000B4BEB0B0BE5FB01AB16
:106E4000CDF814C00B994FF0000CE0FB01EC12EBF5
:106E50000C024FF0000C4CEB0C0CE3FB012C16EB7E
:106E60000C064FF0000C4CEB0C0CE4FB016C17EB28
:106E70000C074FF0000C4CEB0C0CE5FB017C0F9960
:106E800018EB0C084FF0000C4CEB0C0CE0FB018CE9
:106E900019EB0C094FF0000C4CEB0C0CE3FB019CC4
:106EA0001AEB0C0A4FF0000C4CEB0C0CE4FB01ACA1
:106EB0001BEB0C0B4FF0000C4CEB0C0CE5FB01BC7E
:106EC000CDF818E00C994FF0000EE0FB012E16EB08
:106ED0000E064FF0000E4EEB0E0EE3FB016E17EBAD
:106EE0000E074FF0000E4EEB0E0EE4FB017E18EB8A
:106EF0000E084FF0000E4EEB0E0EE5FB018E1099C2
:106F000019EB0E094FF0000E4EEB0E0EE0FB019E4A
:106F10001AEB0E0A4FF0000E4EEB0E0EE3FB01AE25
:106F20001BEB0E0B4FF0000E4EEB0E0EE4FB01BE02
:106F30001CEB0E0C4FF0000E4EEB0E0EE5FB01CEDF
:106F4000DDE90434069913EB0A0354EB0B0451EB0F
:106F50000C0152EB0E02002040F1000013EB0B037A
:106F600054EB0C0451EB0E0152EB0E024641002093
:106F7000474158EB000859EB0A0940F10000B3EB18
:106F80000E0374F1000471F1000172EB0A0276EB5A
:106F90000B0677EB0C0778EB0A0879EB0C0960F12C
:106FA0000000B2EB0B0276EB0C0677EB0E0778EBEA
:106FB0000B0879EB0E0960F100005FEAE07C7FEAE4
:106FC0000C0CDCF1000EB3EB0C0374EB0C0471EB56
:106FD0000C0172F1000276F1000677F1000778EB00
:106FE0000E0879EB0C0960F100005FEAE07CDCF14F
:106FF000000E13EB0C0354EB0C0451EB0C0152F19B
:10700000000256F1000657F1000758EB0E0859EB45
:107010000C0940F100005FEAE07CDCF1000E13EBAC
:107020000C0354EB0C0451EB0C0152F1000256F12D
:10703000000657F1000758EB0E0859EB0C09DDE983
:1070400000ABDDE902CE1AEB060A5BEB070B5CEB4B
:10705000080C5EEB090E002040F100001AEB070A55
:107060005BEB080B5CEB090C5EEB090E4341002067
:1070700044414141724140F10000BAEB090A7BF101
:10708000000B7CF1000C7EEB060EBB4174EB080498
:10709000B14172EB080260F10000BEEB070E73EB2A
:1070A000080374EB0904B94172EB090260F10000B6
:1070B0005FEAE0787FEA0808D8F10009BAEB080A2D
:1070C0007BEB080B7CEB080C7EF1000E73F10003E8
:1070D00074F1000471EB090172EB080260F1000029
:1070E0005FEAE078D8F100091AEB080A5BEB080BBD
:1070F0005CEB080C5EF1000E53F1000354F1000448
:1071000051EB090152EB080240F100005FEAE07820
:10711000D8F100091AEB080A5BEB080B5CEB080CD2
:107120005EF1000E53F1000354F1000451EB09012C
:1071300052EB08020798A0E8005C18C080E806003F
:1071400011B0BDE8F08F00BF70B491E87800B2E8EC
:1071500002105B1854EB0C04B2E802104D4156EBE0
:107160000C0680E878008041013070BC70472DE942
:10717000F00791E8F807B2E802105B1854EB0C0432
:10718000B2E802104D4156EB0C06B2E802104F4136
:1071900058EB0C08B2E8021059EB01095AEB0C0A43
:1071A00080E8F80780410130BDE8F00770472DE91D
:1071B000F00791E8F807B2E802105B1A74EB0C04D0
:1071C000B2E802108D4176EB0C06B2E802108F4156
:1071D00078EB0C08B2E8021079EB01097AEB0C0AA3
:1071E00080E8F80780414042BDE8F00770472DE98C
:1071F000F007524290E87800B1E880071740DB19A9
:1072000018EA020854EB080419EA020955EB0905CB
:107210001AEA020A56EB0A0678C090E87800B1E84C
:10722000800717407B4118EA020854EB080419EA6A
:10723000020955EB09051AEA020A56EB0A0678C05C
:1072400080410130BDE8F00770472DE9F007524258
:1072500090E87800B1E880071740DB1B18EA0208C5
:1072600074EB080419EA020975EB09051AEA020A27
:1072700076EB0A0678C090E87800B1E880071740FE
:10728000BB4118EA020874EB080419EA020975EB1D
:1072900009051AEA020A76EB0A0678C080414042E4
:1072A000BDE8F007704790E8300091E8C000A31BEC
:1072B0001340E41AF618EB1B1340ED1AFF1830C008
:1072C000C0C17047F0B55242FFF7EDFFFFF7EBFF8B
:1072D000FFF7E9FFFFF7E7FFF0BD2DE9F0073AC937
:1072E0001668A1FB069A4FF0000CE3FB06AC4FF0CA
:1072F0000007E4FB06C74FF00008E5FB067840F8FE
:10730000049B56684FF00009E1FB06A91CEB090C31
:107310004FF0000949EB0909E3FB06C917EB090720
:107320004FF0000949EB0909E4FB067918EB09085D
:107330004FF0000949EB0909E5FB068940F804AB69
:1073400096684FF0000AE1FB06CA17EB0A074FF0F8
:10735000000A4AEB0A0AE3FB067A18EB0A084FF028
:10736000000A4AEB0A0AE4FB068A19EB0A094FF005
:10737000000A4AEB0A0AE5FB069A40F804CBD668F5
:107380004FF0000CE1FB067C18EB0C084FF0000CF2
:107390004CEB0C0CE3FB068C19EB0C094FF0000CCA
:1073A0004CEB0C0CE4FB069C1AEB0C0A4FF0000CA7
:1073B0004CEB0C0CE5FB06AC80E88017BDE8F00751
:1073C00070470A462DE9F04F92E8F00F2DE9F30FD0
:1073D00087B091E839000999A0FB01784FF00009C6
:1073E000E3FB01894FF0000AE4FB019A4FF0000B28
:1073F000E5FB01AB0D994FF0000CE0FB01BC4FF039
:10740000000EE3FB01CE4FF00002E4FB01E24FF07F
:107410000006E5FB012600970A994FF00007E0FB04
:10742000018719EB07094FF0000747EB0707E3FB5C
:1074300001971AEB070A4FF0000747EB0707E4FB39
:1074400001A71BEB070B4FF0000747EB0707E5FB16
:1074500001B70E991CEB070C4FF0000747EB07072D
:10746000E0FB01C71EEB070E4FF0000747EB0707D5
:10747000E3FB01E7D2194FF0000747EB0707E4FBF6
:107480000127F6194FF0000747EB0707E5FB0167F7
:10749000CDF804800B994FF00008E0FB01981AEB3F
:1074A000080A4FF0000848EB0808E3FB01A81BEBB3
:1074B000080B4FF0000848EB0808E4FB01B81CEB90
:1074C000080C4FF0000848EB0808E5FB01C80F99CD
:1074D0001EEB080E4FF0000848EB0808E0FB01E83F
:1074E00012EB08024FF0000848EB0808E3FB012804
:1074F00016EB08064FF0000848EB0808E4FB0168AB
:1075000017EB08074FF0000848EB0808E5FB017887
:10751000CDF808900C994FF00009E0FB01A91BEB96
:10752000090B4FF0000949EB0909E3FB01B91CEB1A
:10753000090C4FF0000949EB0909E4FB01C91EEBF6
:10754000090E4FF0000949EB0909E5FB01E9109923
:1075500012EB09024FF0000949EB0909E0FB012990
:1075600016EB09064FF0000949EB0909E3FB016935
:1075700017EB09074FF0000949EB0909E4FB017912
:1075800018EB09084FF0000949EB0909E5FB0189EF
:10759000CDF80CA0089901F1100191E83900099982
:1075A0004FF0000AE0FB01BA1CEB0A0C4FF0000A96
:1075B0004AEB0A0AE3FB01CA1EEB0A0E4FF0000A6F
:1075C0004AEB0A0AE4FB01EA12EB0A024FF0000A56
:1075D0004AEB0A0AE5FB012A0D9916EB0A064FF061
:1075E000000A4AEB0A0AE0FB016A17EB0A074FF0B0
:1075F000000A4AEB0A0AE3FB017A18EB0A084FF08B
:10760000000A4AEB0A0AE4FB018A19EB0A094FF067
:10761000000A4AEB0A0AE5FB019ACDF810B00A9974
:107620004FF0000BE0FB01CB1EEB0B0E4FF0000BFD
:107630004BEB0B0BE3FB01EB12EB0B024FF0000BE0
:107640004BEB0B0BE4FB012B16EB0B064FF0000B87
:107650004BEB0B0BE5FB016B0E9917EB0B074FF098
:10766000000B4BEB0B0BE0FB017B18EB0B084FF017
:10767000000B4BEB0B0BE3FB018B19EB0B094FF0F2
:10768000000B4BEB0B0BE4FB019B1AEB0B0A4FF0CF
:10769000000B4BEB0B0BE5FB01ABCDF814C00B99CA
:1076A0004FF0000CE0FB01EC12EB0C024FF0000C71
:1076B0004CEB0C0CE3FB012C16EB0C064FF0000C12
:1076C0004CEB0C0CE4FB016C17EB0C074FF0000CBF
:1076D0004CEB0C0CE5FB017C0F9918EB0C084FF000
:1076E000000C4CEB0C0CE0FB018C19EB0C094FF07F
:1076F000000C4CEB0C0CE3FB019C1AEB0C0A4FF05A
:10770000000C4CEB0C0CE4FB01AC1BEB0C0B4FF036
:10771000000C4CEB0C0CE5FB01BCCDF818E00C990F
:107720004FF0000EE0FB012E16EB0E064FF0000EA0
:107730004EEB0E0EE3FB016E17EB0E074FF0000E43
:107740004EEB0E0EE4FB017E18EB0E084FF0000E20
:107750004EEB0E0EE5FB018E109919EB0E094FF062
:10776000000E4EEB0E0EE0FB019E1AEB0E0A4FF0E0
:10777000000E4EEB0E0EE3FB01AE1BEB0E0B4FF0BB
:10778000000E4EEB0E0EE4FB01BE1CEB0E0C4FF098
:10779000000E4EEB0E0EE5FB01CE079800F11C012A
:1077A00081E8C45FBDE8F80380E8F8030AB0BDE8EB
:1077B000F08F00BF2DE9F05F0546002092469B4602
:1077C00088460646814640241BE0284641464746F7
:1077D000224600F07BF853465A46C01A914110D316
:1077E00011461846224600F016F82D1A67EB0108DC
:1077F0004F4622460120002100F00DF817EB00094A
:107800004E41201EA4F10104DFDC484631462A46E1
:107810004346BDE8F09F202A04DB203A00FA02F13B
:10782000002070479140C2F1200320FA03F319436E
:1078300090407047004870476CA8030010B540EABC
:1078400001040346A40703D009E010C9121F10C3A6
:10785000042AFAD203E011F8014B03F8014B521E3F
:10786000F9D210BDD2B201E000F8012B491EFBD2C3
:1078700070470022F6E710B513460A46044619463B
:10788000FFF7F0FF204610BD421C10F8011B002935
:10789000FBD1801A704710B5002200E0521C835CB7
:1078A0008C5CA34201D1002BF8D1D8B2E1B2401ACE
:1078B00010BD30B504460020034600E05B1C934237
:1078C00003D2E05CCD5C401BF8D030BD202A04DB45
:1078D000203A21FA02F00021704721FA02F3D04049
:1078E000C2F120029140084319467047064C074DEB
:1078F00006E0E06840F0010394E807009847103480
:10790000AC42F6D3FEF780FC28C9030048C9030047
:1079100070B58C1810F8015B15F0070301D110F851
:10792000013B2A1106D110F8012B03E010F8016B7E
:1079300001F8016B5B1EF9D12B0705D40023521E01
:107940000DD401F8013BFAE710F8013BCB1A921C69
:1079500003E013F8015B01F8015B521EF9D5A14267
:10796000D8D3002070BD00002DE9F047CA17A0B0A1
:10797000064600F120098C180F46544001464A463D
:10798000684606F1400A06F16008FEF7BDFD514663
:10799000424608A8FEF7B8FD651E5246494610A8A3
:1079A000FEF7B2FDED174246314618A8FEF7ACFDD2
:1079B000ED43064A2C40FB0F6946304602EB841229
:1079C00000F0B2F820B0BDE8F08700BF48C2030065
:1079D0002DE9F047CA17A0B0054600F1200A8C181F
:1079E0000F46544001465246684605F1400905F1EC
:1079F0006008FEF789FD4946424608A8FEF784FD67
:107A0000661E4A46514610A8FEF77EFDF61742460E
:107A1000294618A8FEF778FDF6430834054A344095
:107A2000FB0F6946284602EB841200F07DF820B077
:107A3000BDE8F08748C203002DE9F047CA17A0B09F
:107A4000054600F1200A8C180F4654400146524664
:107A5000684605F1400905F16008FEF755FD494605
:107A6000424608A8FEF750FD661E4A46514610A839
:107A7000FEF74AFDF6174246294618A8FEF744FDD0
:107A8000F6431034054A3440FB0F6946284602EBA2
:107A9000841200F049F820B0BDE8F08748C2030026
:107AA00070B5A0B0044601F1200668460D46FEF709
:107AB0002AFD314608A8FEF726FD05F1400110A871
:107AC000FEF721FD10AA11461046FEF7ABFC6946F1
:107AD00018A800F091FB324629462046FEF7A2FC8A
:107AE00021462046FEF70FFD6A4621462046FEF756
:107AF000D1FC04F1400508AA21462046FEF7CAFC45
:107B0000284608AA18A9FEF78DFC10AA294604F1F8
:107B10002000FEF7BFFC08AA18A904F16000FEF7D8
:107B2000B9FC20B070BD00BF2DE9F0430D46A1B0F7
:107B300001F120091646044649462A4668469846F9
:107B400006F12007FEF7A6FC49462A4608A8FEF7DC
:107B500069FC3946324610A8FEF79CFC394632468D
:107B600018A8FEF75FFC424618A910A8FFF7AAFB69
:107B700010AA69466846FEF7C7FC08A918AA084675
:107B8000FEF7C2FC3A46314610A8FEF7BDFC10A92C
:107B900005F160020846FEF7B7FC10A90846144A32
:107BA000FEF7B2FC05F14002114618A8FEF73AFCB8
:107BB0006A4608A92046FEF76DFC04F120056A46D6
:107BC00008A904F16000FEF72DFC4034284610AAF5
:107BD00018A9FEF75FFC10AA18A92046FEF722FCA0
:107BE000424629462046FFF76DFB21B0BDE8F083F1
:107BF00088C803002DE9F047CC7F0D78C0B00B4654
:107C000025F0070504F03F0493F8028049788DF8C9
:107C1000405044F040041D7F93F803C0D3F804E0C3
:107C20009F68D3F810A0DE688DF841108DF85F4092
:107C300011469C695A698DF842808DF85C5093F822
:107C40001D809B7F8DF843C081466D466846CDF808
:107C500044E01297CDF850A0159216948DF85D80EF
:107C60008DF85E30139600F0A1FA0FCD18AC0FC45A
:107C700095E80F0084E80F006846012100F0B2FA91
:107C800018AD08A8002100F0ADFA0FCD20AC0FC44C
:107C900095E80F0084E80F0028A8012100F0A2FA5F
:107CA00018AF0DF140084FF0060A002417F8016DD7
:107CB00046FA0AF505F001056C40224620A96846FF
:107CC000FFF700FB224628A908A8FFF7FBFA08AA3D
:107CD000694630A8FEF7A6FB08AA10466946FEF7DB
:107CE000D9FB28AA20A938A8FEF79CFB28AA104691
:107CF00020A9FEF7CFFB38A9084608AAFEF704FC26
:107D000028A9084630AAFEF7FFFB38AA28A920A810
:107D1000FEF788FB28A938AA0846FEF7BBFB20A976
:107D20000846FEF7F0FB28A90846FEF7ECFB28A959
:107D300018AA0846FEF7E8FB30A90846FEF7E3FB61
:107D400008A938A8FEF7DFFB38AA30A96846FEF775
:107D5000DBFB30A938AA0846FEF79CFB30A908A82F
:107D6000FEF71BFE08A9084638AAFEF75BFB08A928
:107D70000AF1FF3A30AA0846FEF7C6FBBAF1FF3F08
:107D80002C4695D147454FF0070A8FD108A90846E0
:107D9000012200F043FA08AA69466846FEF7B4FBE0
:107DA0006946484600F048FB40B0BDE8F08700BF98
:107DB000014AFFF71FBF00BF28BF030070B500F1E5
:107DC000200590B00E46044600F072FB06F120013B
:107DD000284600F06DFB214608A8FEF7C5FE08A95D
:107DE00008460C4AFEF754FE08A922460846FEF74C
:107DF000BCFE08A90846084AFEF74AFE294668461E
:107E0000FEF7B2FE694608A82022FEF7EBFA013819
:107E100010B070BDA8C80300C8C803002DE9F04722
:107E2000B8B08A468146114610A8514AFFF7BFF9FB
:107E30005049024610A8FFF7DAF9179F4C4900EAAB
:107E4000D7778046C7F1010210A8FFF7D0F9179D38
:107E5000524628A918A8ED4301F0CCF8ED0F20A94F
:107E6000C5F10102084600F0FFFAC8F10108FE263C
:107E70006A4618A928A801F071F8731138AA02EB14
:107E8000830306F01F0253F8A04CD44004F0010411
:107E900065402A4628A918A8FFF714FA2A4630A9EF
:107EA00020A8FFF70FFA013E28A918A800F0F0FF5C
:107EB000731C2546DCD1C4F1010208A820A900F0FA
:107EC000D3FA7D406A4618A928A801F047F828A9E6
:107ED0002A4618A8FFF7F6F92A4630A920A8FFF786
:107EE000F1F908A96A460846FEF73FFE08A90846C8
:107EF00000F0F8FA08A909F120040AF12002084666
:107F0000FEF733FE20A908AA2046FEF72EFE08AA97
:107F100018A96846FEF729FE69466846FEF724FE62
:107F200018AA694608A8FEF720FE21466846FEF713
:107F30001BFE08AA69461046FEF7E9FD08A90E4A8D
:107F40006846FEF7E4FD20462021FEF75EFA08A908
:107F500043420246684643EA0808FFF7B3F9484639
:107F60006946064AFEF701FE404638B0BDE8F08794
:107F700008C9030008C20300C8C80300A82D0020D8
:107F80000A460149FFF74ABF48BF030000F05ABB49
:107F900038B504460D4600F055FB05F1200104F10B
:107FA0002000BDE8384000F04DBB00BF30B5A9B09F
:107FB00014460546684600F0B7FB214618A8FFF7AF
:107FC000FDFE6A4618A9044608A8FFF727FF08A97E
:107FD00004432846FFF7DAFF204629B030BD00BF32
:107FE00030B599B00546684600F09EFB694608A882
:107FF000FFF7C6FF08A904462846FFF7C9FF204639
:1080000019B030BD10B52022B0B004460DEB02000F
:1080100000F0B2FB9DF83F309DF8202003F07F0375
:1080200043F0400322F0070208A968468DF83F306C
:108030008DF8202000F020FB694618A800F028F8F1
:1080400018A9204600F002F830B010BD30B599B044
:1080500004460D4610A84031012200F0DFF810AAB6
:1080600029466846FEF750FA10AA05F1200108A833
:10807000FEF74AFA08A9204600F0DEF9684600F04B
:10808000A9F8E37F83EAC010E07719B030BD00BFE4
:108090002DE9F041B0B00446684600F025FB9DF99B
:1080A0003F30414DDA1713445340012B03F11002C6
:1080B0001346B8BF002305EB83150FCD27460FC726
:1080C0000FCD0FC70FCD0FC795E80F0004F1400685
:1080D00087E80F003046012100F084F8E84604F1FB
:1080E00020070DF11505214610A8FFF7D9FC18AAA5
:1080F00010A92046FEF708FA28AA20A93846FEF75C
:1081000003FA20AA18A93046FEF7FEF9214610A866
:10811000FFF7C6FC18AA10A92046FEF7F5F928AA11
:1081200020A93846FEF7F0F920AA18A93046FEF734
:10813000EBF9214610A8FFF7B3FC18AA10A92046B6
:10814000FEF7E2F928AA20A93846FEF7DDF920AAB1
:1081500018A93046FEF7D8F9214610A8FFF7A0FC71
:1081600015F9011D10A8FFF7FFFB95F9151010A8D0
:10817000FFF72EFC95F92A1010A8FFF75DFC18AA4E
:1081800010A92046FEF7C0F928AA20A93846FEF714
:10819000BBF920AA18A93046FEF7B6F9A845A2D126
:1081A00030B0BDE8F08100BF48C203000B68036037
:1081B0004B6843608B688360CB68C3600B69036165
:1081C0004B6943618B698361CB6923F00043C361D1
:1081D000704700BF10B50446FEF723FC206800F08E
:1081E000010010BD002380E80A008360C3600361C2
:1081F00043618361C361704700B589B000230A46BB
:1082000069460093019302930393049305930693A5
:108210000793FEF73FF909B05DF804FBF0B5A1B094
:108220000546684617460E46FEF76DF9694618A8DA
:10823000FEF769F918A90846FEF765F9324618A94C
:1082400008A8FEF761F96A4608A96846FEF75CF9D6
:10825000694618A8FEF757F908AA104618A9FEF7AC
:1082600053F908A918A8FEF74EF918A90846FEF711
:108270004AF918A90846FEF746F918A90846FEF774
:1082800042F918A90846FEF73EF908AA18A91046AF
:10829000FEF73AF9022408A918A8FEF734F918A93C
:1082A0000846FEF730F918A90846FEF72CF918A978
:1082B0000846FEF728F918A90846FEF724F9013CFC
:1082C00018A9E9D110A808AAFEF71EF9042410A9DC
:1082D00018A8FEF718F918A90846FEF714F918A906
:1082E0000846FEF710F918A90846FEF70CF918A978
:1082F0000846FEF708F9013C18A9E9D110AA08467A
:10830000FEF702F9022418A90846FEF7FCF818A99E
:108310000846FEF7F8F818A90846FEF7F4F818A979
:108320000846FEF7F0F818A90846FEF7ECF8013CFD
:10833000E9D118A908AA10A8FEF7E6F80A2410A99E
:1083400018A8FEF7E0F818A90846FEF7DCF818A907
:108350000846FEF7D8F818A90846FEF7D4F818A979
:108360000846FEF7D0F8013C18A9E9D110AA08A8E0
:10837000FEF7CAF8142408A918A8FEF7C4F818A92B
:108380000846FEF7C0F818A90846FEF7BCF818A979
:108390000846FEF7B8F818A90846FEF7B4F8013CFD
:1083A00018A9E9D108AA0846FEF7AEF80A2418A9C8
:1083B0000846FEF7A8F818A90846FEF7A4F818A979
:1083C0000846FEF7A0F818A90846FEF79CF818A979
:1083D0000846FEF798F8013CE9D118A9084610AA0A
:1083E000FEF792F818A9084667B9FEF78CF818A9A5
:1083F0000846FEF788F8324618A92846FEF784F8A2
:1084000021B0F0BDFEF77FF818A90846FEF77BF80B
:1084100018A90846FEF777F818A90846FEF773F87A
:1084200018A90846FEF76FF86A4618A92846FEF70D
:108430006BF821B0F0BD00BF38B50C4605460846C4
:10844000FEF7EFFA23682B6063686B60A368AB608C
:10845000E368EB6023692B6163696B61A369AB61BE
:10846000E369EB6138BD00BF2DE9F0410D460646DA
:108470000F4690460FCD34460FC495E80F0088B0E4
:1084800084E80F0000233A4669466846009301934A
:10849000029303930493059306930793FEF737FB28
:1084A000424669463046FEF70DFF08B0BDE8F08150
:1084B0000B681BBAC3614B681BBA83618B681BBA1C
:1084C0004361CB681BBA03610B691BBAC3604B697C
:1084D0001BBA83608B691BBA4360CB691BBA03600C
:1084E000704700BF70B598B00D46064610A8FEF75D
:1084F0003BFB2A4610A96846FEF737FB694610A8E1
:10850000FEF732FB10A90846FEF72EFB6A4610A9BB
:1085100008A8FEF72AFB08A910A8FEF725FB10A95A
:108520000846FEF721FB10A90846FEF71DFB10A91F
:108530000846FEF719FB10A908AA0846FEF715FB26
:1085400010A90846FEF710FB10A90846FEF70CFB21
:1085500010A96A4608A8FEF708FB052408A910A878
:10856000FEF702FB10A90846FEF7FEFA013C10A92F
:10857000F5D108AA0846FEF7F8FA052410A908461E
:10858000FEF7F2FA10A90846FEF7EEFA013CF5D123
:1085900010A908AA0846FEF7E8FA10A908A8FEF7ED
:1085A000E3FA08A90846FEF7DFFA08A96A46684612
:1085B000FEF7DBFA1024694610A8FEF7D5FA10A9D9
:1085C0000846FEF7D1FA013C10A9F5D12A46084623
:1085D000FEF7CBFA402410A90846FEF7C5FA10A909
:1085E0000846FEF7C1FA013CF5D110A96A460846D3
:1085F000FEF7BBFA102410A90846FEF7B5FA10A939
:108600000846FEF7B1FA013CF5D110A96A460846C2
:10861000FEF7ABFA102410A90846FEF7A5FA10A938
:108620000846FEF7A1FA013CF5D110A908AA0846B0
:10863000FEF79BFA2A4610A93046FEF796FA18B0C4
:1086400070BD00BFCB691BBA03608B691BBA436066
:108650004B691BBA83600B691BBAC360CB681BBA3A
:1086600003618B681BBA43614B681BBA83610B685B
:108670001BBAC361704700BFF0B50B4699B0DA6909
:10868000184D149218A9120F04465F689E68186965
:1086900041F85C2DDA68D3F800E00E970F965F6919
:1086A0009E69109200232A46119005A8CDF834E067
:1086B00017931693159304930393029312971396AB
:1086C000FEF70BFE019B05AA1B070DA920460C9384
:1086D000FEF76DFDE2692946D20F2046FEF787FDC1
:1086E00019B0F0BD28C20300F0B40025471E2C4687
:1086F0002A46E30814F0070F08BF51F8235005F08D
:108700000F03134403F1080212090134D6B2A3EB9C
:1087100006133F2C4FEA151507F8013FE9D1354400
:1087200080F83F50F0BC704738B50B68114D1BBA4C
:10873000C3614B681BBA83618B681BBA4361CB680A
:108740001BBA03610B691BBAC3604B691BBA836018
:108750008B691BBA4360CB691BBA2A46036001468A
:108760000446FEF724FD294602462046BDE838406F
:10877000FEF73DBDE8C803002DE9F04F0FF2B83B0E
:10878000DBE900ABEEA7D7E90067B3B0EEA5D5E90A
:108790000045CDE900ABCDE902670FF2B43BDBE960
:1087A00000ABEDA7D7E90067CDE90445ECA5D5E915
:1087B0000045CDE906ABCDE908670FF2AC3BDBE93C
:1087C00000ABEBA7D7E90067CDE90A450024804656
:1087D0001546CDE90CABCDE90E6731923094002AF5
:1087E00040F0798180238DF8403032ABC3F18703AC
:1087F00003F0030302224FF041094FF07A0E0124E7
:108800006E4610AF2046002B40F030817B2AAEEB45
:10881000030EC0F17A00AEF1040188BF0020890880
:10882000C01A013102284FEA810C0CD903EB09026E
:1088300000233244184601338B4242F8040BFAD32A
:10884000F445644412D032A9631C214400227B2BDE
:1088500001F8882C0AD032A90B4402347B2C03F88F
:10886000882C03D032AB1C4404F8882C6A0B6B09AB
:1088700039466C0D30466E0FED008DF8BB608DF8FB
:10888000BC408DF8BD208DF8BE308DF8BF5000F093
:10889000F5FD04A80FC893FA83F9089B029D039C79
:1088A000009F019EC8F8189093FA83FE099BC8F8B0
:1088B00024E02DBA24BA00BA09BA12BA93FA83FC9A
:1088C000C8F80C50C8F808400A9D0B9CC8F8140062
:1088D000C8F810100C980D99C8F81C200F9B0E9A20
:1088E000C8F820C03FBA36BA2DBA24BA00BA09BABD
:1088F00012BA1BBAC8F80470C8F80060C8F82C5047
:10890000C8F82840C8F83400C8F83010C8F83C202F
:10891000C8F8383033B0BDE8F08F224610AF32A827
:1089200010440C7800F8884C501C83420CD932ACAF
:10893000204402324C7800F8884C934204D932A883
:108940000244897802F8881C32AA581C1A448021F3
:108950007028309302F8881C73D97F286BD832AA0C
:108960001044991C0022802900F8882C63D032A87A
:108970000844D91C802900F8882C5CD032A808440F
:10898000191D802900F8882C55D032A80844591D9B
:10899000802900F8882C4ED032A80844991D8029DF
:1089A00000F8882C47D032A80844D91D802900F847
:1089B000882C40D032A8084403F10801802900F82F
:1089C000882C38D032A8084403F10901802900F826
:1089D000882C30D032AA501803F10A0100228029D5
:1089E00000F8882C27D032A8084403F10B01802915
:1089F00000F8882C1FD032A8084403F10C0180290C
:108A000000F8882C17D032A8084403F10D01802902
:108A100000F8882C0FD032A8084403F10E018029F9
:108A200000F8882C07D032A80144702B01F8882C5C
:108A300001D18DF8BF203946304600F01FFD7A285D
:108A40006CD800F1400906EB0901421C7B2AC1F1F8
:108A50000001C0F17B0301F0030188BF01239942AB
:108A600028BF1946062B319D9E4659D832AC044486
:108A70000021012B04F8881C4ED00DF1C80C944441
:108A8000022B02F101040CF8881C20D00DF1C80C57
:108A9000A444032B02F102040CF8881C17D00DF13A
:108AA000C80CA444042B02F103040CF8881C0ED05B
:108AB0000DF1C80CA444062B02F104040CF8881C28
:108AC00005D10DF1C80CA444541D0CF8881C734545
:108AD0007FF49CAECAE668460F4600F0E7FA291A12
:108AE0006E4603463944F0B1043880085D1E0130FB
:108AF000022D4FEA80027FF610AF10AFBE460D4642
:108B0000013455F804CB4EF804CB8442F8D39A4292
:108B100011447FF404AF17E71446D8E7319DA5E66A
:108B200004460B466EE632AF8022309007F8882D5F
:108B3000012086E7AFF3008008C9BCF367E6096A45
:108B40003BA7CA8485AE67BB2BF894FE72F36E3CDC
:108B5000F1361D5F3AF54FA5D182E6AD7F520E5139
:108B60001F6C3E2B8C68059B6BBD41FBABD9831FF3
:108B700079217E1319CDE05B2DE9F04F9FB0A1F173
:108B800008031C93D2E90E34CDE91634D2E90C3433
:108B9000CDE90234D2E90A34CDE90034D2E9063411
:108BA000CDE91834D2E90234CDE90634D2E90434EF
:108BB000CDE9043400F18003D2E908ABD2E90089A1
:108BC0001D9309909646014606E0CDE90689B24616
:108BD0008946BB4680461946F1E802451C9F09912B
:108BE0004FEA9A3242EA8B42F7E902010A924FEACF
:108BF0009A434FEA9B364FEA9B4243EA8B3346EA5D
:108C00008A4642EA8A320C930D924FEACB530B9676
:108C1000CDE91A0143EA5A22DDE90C011C974FEA1B
:108C2000CA53DDE90A670F9243EA5B220E9246407F
:108C30004F40DDE90E017040794006460F464FEA8D
:108C40001873DDE91A0143EA09124FEA8973109299
:108C500043EA9802001913924FEA887269414FEA79
:108C6000197342EA9902CDE91A0143EA0815DDE9D0
:108C700000011292DDE902234FEA4964119544EAAA
:108C8000D81515954240DDE902454B40DDE91A0152
:108C900003EA0B03801902EA0A0285EA03054FEA98
:108CA000486C79415440DDE906672B464CEAD915FA
:108CB00014952246DDE9044546EA080647EA090715
:108CC000121804EA060405EA07054B4126462F461A
:108CD000DDE91001DDE912456040694004460D46BA
:108CE000DDE914016040694004460D46DDE90601F6
:108CF00000EA080001EA090130433943DDE916675B
:108D0000B6185F4132463B46DDE9186700196941F4
:108D1000B6185F4180185941DDE90023DDE90245BD
:108D2000CEE90C23DDE90423CEE90E45CEE9062386
:108D3000CDE91645DDE90623DDE90445CEE9042346
:108D4000CDE90423CDE91845099B1D9ADDE90045CD
:108D50009342CEE90AABCEE90289CEE90867CDE9B4
:108D60000245CEE90001CDE900AB7FF42EAF1FB084
:108D7000BDE8F08F2DE9F04F8FB0A0F108014FF062
:108D8000000E03917346AEF102020EF1010E02F0E5
:108D90000F020EF00F0400EBC20600EBC40550F802
:108DA00034706D68746850F832604FEA172AF90918
:108DB00000914FEAD64C4AEA056106914CEA4431EB
:108DC000089100994FEA550B41EA45614FEA152A8F
:108DD00000914BEAC7717A0805914AEA0761039F3F
:108DE0000791D7E902AB42EAC5724FEAD44C4CEA8C
:108DF00046310492F700E20042EA56724FEA9618B2
:108E0000CDE90CAB0991DDE906AB47EA5471DDE928
:108E100004670B920A9186EA0A06E90987EA0B07BA
:108E200048EA8468DDE90AAB4FEA9419DDE90845B0
:108E3000019184EA0A0485EA0B05DDE900AB073BF2
:108E400003F00F038AEA060A8BEA070B00EBC30361
:108E5000D3E9002356465F46DDE90CAB1AEB020A64
:108E60004BEB030B84EA08041AEB06024BEB0703F7
:108E70000399121985EA09056B41E1E90223BEF164
:108E8000100F03917FF47EAF0FB0BDE8F08F00BFED
:108E9000F0B599B004460E460A4601466846FDF70D
:108EA00036FE69466846FDF75FFE6A46214608A819
:108EB00006F1200504F12007FDF757FE6A4631460A
:108EC0006846FDF752FE39462A4610A8FDF7E0FD38
:108ED0002A4639462846FDF71AFE29463046FDF750
:108EE00043FE6A4608A92046FDF7D2FD22463146D8
:108EF0003046FDF70CFE6A4608A96846FDF707FEF6
:108F00006A4639463846FDF730FE324608A96846BB
:108F1000FDF7FDFD6A4629462846FDF726FE3A463E
:108F200029462846FDF7F3FD10A96846FDF71CFE0B
:108F3000224669462046FDF7EAFD08A92246084672
:108F4000FDF7E5FD10A908AA0846FDF70EFE3A4612
:108F500010A93846FDF7DBFD19B0F0BD2DE9F04151
:108F60000C4688B005469046014622466846FDF705
:108F7000CEFD69466846FDF7F7FD6A462946284654
:108F800004F12006FDF7F1FD05F120076A462146B0
:108F90006846FDF7EAFD324630463946FDF7B7FD33
:108FA00031462046FDF7E0FD2A4621462046FDF7E2
:108FB000AEFD6A4621462046FDF7A9FD6A462946D0
:108FC0004046FDF7A4FD424639463846FDF7CDFD43
:108FD000224629466846FDF79AFD6A4631463046E4
:108FE000FDF7C3FD3A4631463046FDF790FD08B027
:108FF000BDE8F0812DE9F04188B00D46074602F149
:109000002001684607F120069046FDF7ADFD6A464F
:1090100069466846FDF73CFD30466946FDF7A4FD0C
:1090200032463146304605F12004FDF731FD6A46EF
:1090300069466846FDF72CFD20464146FDF794FD44
:109040006A4641463846FDF790FD2246214668466D
:10905000FDF71EFD224669466846FDF719FD694683
:109060006846114AFDF714FD69462846FDF77CFD68
:109070003A4629462846FDF74AFD3A4629462846FB
:10908000FDF745FD2A4639462046FDF740FD6A4674
:1090900021462046FDF769FD324621462046FDF770
:1090A00036FD08B0BDE8F081A8C803002DE9F04FF7
:1090B000E3B07F2A2F9240F2D981D0E90467CDE94D
:1090C0000067D0E90667CDE90267D0E90867CDE916
:1090D0000467D0E90A67CDE90667D0E90C678B46DB
:1090E000D0E902451146CDE92C67D0E90023D0E94B
:1090F0000E67CDE90A23CDE90867CDE90C45814625
:109100002E91DBF80000DBF80810DBF81060DBF8CC
:109110000CA0DBF814C0DBF81CE0DBF834200BBA41
:1091200090FA80F8DBF81800DBF820100F9333BAC0
:109130001193DBF8286003BA1393DBF830000BBA05
:109140001593DBF8381033BA179303BA19930BBA97
:109150001B93DDE90A34CDE93234DDE90C34002714
:10916000DBF82400DBF82C100E97CDE9343410978F
:1091700012971497169718971A97DBF83C30DBF87C
:109180000460DDE90045CDE93645DDE90245CDE97C
:109190003845DDE90E459AFA8AFA44EA0A040DF5E3
:1091A000887ACAE90045DDE90445CDE93A45DDE9BB
:1091B00010459CFA8CFC44EA0C040DF58C7CCCE93F
:1091C0000045DDE912459EFA8EFE44EA0E040DF5D7
:1091D000907ECEE90045DDE90645CDE93C45DDE977
:1091E000144500BA44EA00044AA8C0E90045DDE994
:1091F000164509BA44EA01044CA9C1E90045DDE974
:109200002C01DDE91845CDE93E01DDE91A0112BA6C
:109210001BBA44EA020440EA0300DDE9082336BA37
:109220000DF5807ECEE9002347EA06024EAEC6E980
:10923000004550ACC4E90001434642A9C1E90023FE
:10924000DBF84030DBF844200C93DBF848A0DBF877
:10925000501000911BBA1D93009BDBF85800029040
:109260001BBA2193029BDBF8604004941BBA239342
:10927000049BDBF8685006951BBA2593069BDBF828
:10928000706008961BBA2793089BDBF878100A9148
:109290009AFA8AFA1BBADBF84C40DBF85450DBF838
:1092A0005C60DBF864E0DBF86CC0DBF87400DBF8D2
:1092B0007C10CDF87CA029930A9B1C971BBA2B939A
:1092C00094FA84FADDE91C3412BA43EA02031E97C9
:1092D00052AAC2E90034DDE91E34209743EA0A03AA
:1092E00054AAC2E90034DDE920342DBA43EA05036B
:1092F000229756AAC2E90034DDE9223436BA43EA9D
:109300000603249758AAC2E90034DDE924349EFA02
:109310008EFE43EA0E0326975AAAC2E90034DDE91D
:1093200026349CFA8CFC43EA0C0328975CAAC2E919
:1093300000342A97DDE92834DDE92A5600BA43EAE9
:10934000000309BA5EAAC2E9003445EA010560AB30
:1093500032AA42A94748474CC3E90056FFF70CFC24
:109360000BF1800B803442A8FFF704FD204632AA9F
:1093700042A9FFF701FC404B9C42F3D1D9E900011F
:10938000DDE93223D9E90245CDE90045141843EB64
:109390000105D9E90A23DDE90001CDE90623DDE96C
:1093A00034238018594102460B46CDE90C23DDE9F0
:1093B0003601D9E9042312184B41CDE90A45CDE91C
:1093C0000023D9E90601DDE93834C0186141CDE94F
:1093D0000201DDE93A34D9E90801C0186141CDE95B
:1093E0000401DDE90634DDE93C011B184C41184657
:1093F000214640ABD9E90C45CDE90601D3E900018E
:10940000DDE93E23A4185D41D9E90E2312184B4132
:109410002E9ECDE90823DDE90A12803EC9E900123B
:109420002E96CDE92C45DDE90C23DDE90201C9E9E1
:109430000223C9E90601DDE90023DDE90401C9E9E8
:109440000423C9E90801DDE90823DDE906017F2ECF
:10945000C9E90A01C9E90C45C9E90E233FF651AE35
:109460002F9B03F07F0063B0BDE8F08F104663B020
:10947000BDE8F08F88BF030088C103002DE9F04FDD
:109480000E68D1F808C0D1F80C908D69D1F810E0C1
:10949000D1F82080B5B0044633BA00200193009083
:1094A000DDE900AB9CFA8CF399FA89F94AEA0906DE
:1094B000C869D1F814C01F46CDE916672FBA4D6AA6
:1094C0009EFA8EF300BA0026002246EA00069B466A
:1094D0002DBA98FA88F3D4E90089CDE91A679CFA85
:1094E0008CFC42EA05061F464AEA0C0A4868CDE9A8
:1094F0001C67DDE90067CDE918ABCDE90489D4E943
:1095000002ABD4E9068900BA46EA0006CDE9146741
:10951000CDE906ABD4E90467D4E908ABCDE90A8903
:10952000D4E90C89CDE90867CDE90CABD4E90A6729
:10953000D4E90EABCDE91089D1F82C908D6AD1F821
:1095400030C0886B0B6CD1F850E0D1F8588099FA94
:1095500089F9CDE90E6742EA0906D1F83490CDE9E0
:1095600012AB95FA85FB5F4699FA89F9CDE91E673A
:1095700042EA0906D1F83C908D6CD1F870A09CFAB3
:109580008CFB5F4699FA89F990FA80FBCDE9206758
:109590001BBA42EA09065F46CDE922671F464B6CBB
:1095A000D1F860C0886E16461BBA46EA03062BBA8D
:1095B000CDE924671F46CB6C8D6F002216461BBA7F
:1095C00046EA03069EFA8EF3CDE926671F464B6DE9
:1095D000D1F85CE0002216461BBA46EA030698FA68
:1095E00088F3DDE90089CDE928679EFA8EFE1F46E3
:1095F00046464B6E46EA0E06CDE92A671BBA9CFA30
:109600008CF748EA0308B94690FA80FCCDE92C892A
:10961000C86ED1F874E0CB6F4FF0000B01BA4BEA83
:1096200001069AFA8AF2DDE900AB9EFA8EFE1BBAB9
:1096300091463F482ABA4AEA0E0867464AEA030AB0
:10964000934614A904AACDE92E670546CDE93089D1
:10965000CDE932ABFFF790FA05F50076803514A816
:10966000FFF788FB284604AA14A9FFF785FAB5423C
:10967000F4D1D4E90001D4E90256DDE90423CDE9AF
:109680000056161843EB0107DDE90689DDE90023E2
:1096900012EB080243EB0903D4E904ABCDE9002344
:1096A000DDE9082312EB0A0243EB0B03DDE90A01B3
:1096B00092469B46D4E9062312184B41D4E9088907
:1096C000C4E90623DDE90C2312EB080243EB09038E
:1096D000DDE90E0190469946D4E90A2312184B4160
:1096E00010461946C4E90067DDE91023D4E90C5699
:1096F000AD185E41CDE90256DDE90056D4E90E23EE
:10970000C4E90256DDE9126792197B4116461F46ED
:10971000DDE90223C4E90A010020C4E904ABC4E97D
:109720000889C4E90C23C4E90E6735B0BDE8F08FA1
:1097300088BF03002DE9F04700268AB0DFF850917A
:10974000B0464FF48075012437460696284607F048
:1097500027FC38B1D9F80403204203D0284607F08B
:1097600015FC26432D1D64007F1CADB2082FEDD3E0
:109770004FF4BE74204607F013FC48B1204607F0B2
:1097800005FC46F0004606AA0121002007F0EAFB8E
:10979000404D16F0FF0F15D00127002437420DD0A1
:1097A00009EB8401D1F81005D1F81015C0F304209D
:1097B00055F82420C1F3014102B190477F00641C99
:1097C000082CEBD3002E5FDA4FF0FF30CDF810807D
:1097D00054E0281910F8507F90F9000027F0C008D5
:1097E000401C3BD007A9404605F0B4FE10B34FEA39
:1097F0009719404602F0C0FA55F820701FB1B9F130
:10980000030F03D006E0B9F1030F27D104A94046A6
:1098100005F0A8FE4FF0A04101EB8800D0F800074A
:1098200006A9C0F3014A404605F094FE18B1BAF10A
:10983000020F03D012E0BAF1030F0FD1B9F1030FF9
:1098400008D1BAF1020F1DD00221404607F066FB95
:10985000761CF6B217B149464046B847641C042C42
:10986000B7D3002E10D06A460121002007F07AFB02
:1098700006990098884207D006900498002634463E
:109880000790A6E70321E0E70AB0BDE8F0870000F3
:1098900000600040603B002000F01F020121914069
:1098A0004009800000F1E020C0F88012704700F00D
:1098B0001F02012191404009800000F1E020C0F822
:1098C0000011704700F01F02012191404009800003
:1098D00000F1E020C0F8001270474907090E002887
:1098E00006DA00F00F0000F1E02080F8141D704748
:1098F00000F1E02080F8001470470000064882B0B4
:109900000021016000680090044800680449C0B26A
:10991000496802B00847000000D1004008D5004067
:109920009C2C002007480021C0F84011C0F84411C9
:10993000C0F84811C0F84C11C0F80011C0F804116B
:109940000CF070BD00100140014902480CF03CBE13
:109950000C3C0020003000400CF0B2BC08F0F4B920
:10996000F0B5B5480023021D0178101D01254FF008
:10997000805406290BD11678360708D10678C6F32D
:109980000316032E06D0042E04D0052E02D006297D
:1099900007D00EE0B4F82463A84FC6F304263E6057
:1099A00002E01678360704D10678C6F30316032EB4
:1099B00002D0062904D00FE0A24FA14E7E670EE030
:1099C0001678360708D10678C6F30316032E06D09C
:1099D000042E04D0052E02D0062907D00EE0D4F8BC
:1099E0004462994FC6F342363E6002E0167836076D
:1099F00004D10678C6F30316032E02D0062906D03A
:109A000011E0924E376827F0807737600EE01678C5
:109A1000360708D10678C6F30316032E06D0042EA7
:109A200004D0052E02D006290AD011E04FF080465E
:109A3000C6F80C31C6F81031834E361F336002E091
:109A40001678360704D10678C6F30316032E02D023
:109A5000062905D00CE07C4F032664373E600AE0FF
:109A60001678360704D10678C6F30316032E02D003
:109A700006290DD014E0764F05263E60744E7836E8
:109A80003560734E083633603F263F1D3E6002E06E
:109A90001678360704D10678C6F30316052E02D0D1
:109AA000062957D062E06B4E36686B4F3E60694EB8
:109AB000361D36683F1D3E60664E083636683F1DCF
:109AC0003E60644E0C3636683F1D3E60614E103677
:109AD00036683F1D3E605F4E143636683F1D3E605F
:109AE0005C4E183636685C4F20373E60594E1C3647
:109AF00036683F1D3E60574E203636683F1D3E603B
:109B0000544E243636683F1D3E60524E2836366825
:109B10003F1D3E604F4E2C3636683F1D3E604D4E19
:109B2000303636684C4F40373E604A4E34363668E1
:109B30003F1D3E60474E383636683F1D3E60454EFD
:109B40003C3636683F1D3E60424E403636683F1D0B
:109B50003E6002E01678360708D10678C6F3031691
:109B6000032E06D0042E04D0052E02D0062907D0DD
:109B700019E0D4F85812394A01F04F01116002E09F
:109B8000117809070FD10078C0F30310032803D020
:109B9000042801D0052806D131480168C90702D040
:109BA0006FF001010160D4F83001062808D1D4F823
:109BB0003401062804D12B48016841F4806101601A
:109BC00022487438016841F470010160BFF34F8F7F
:109BD000BFF36F8F4FF01021D1F80002002803DB94
:109BE000D1F80402002822DA1F4A15601F480468D1
:109BF000002CFCD01524C1F800420568002DFCD0D3
:109C0000C1F8044201680029FCD0136001680029F2
:109C1000FCD0BFF34F8F0D48F0380168144A01F4AF
:109C2000E06111430160BFF34F8F00BFFDE71249B0
:109C300010480860F0BD0000E00F00F04035014022
:109C40000DF0ADBA00C007403C050040FCED00E05F
:109C5000105600400404001020C50040E40E0040EF
:109C6000000400403C17004004E5014000E40140CE
:109C70000400FA050090D003A42D002001480068DC
:109C800000470000942C002002E008C8121F08C101
:109C9000002AFAD170477047002001E001C1121F6D
:109CA000002AFBD1704700000121202803DA8140FF
:109CB0000548014003E0402802DA2038814009B11C
:109CC0000120704700207047FC06FFBD2DE9F843D6
:109CD000804643F2020659B969460AF0A3F9B04238
:109CE00002D008B100F036FA9DF80000800744D495
:109CF000002140460AF0D2F905003ED0112D3CD09B
:109D00001F482049401AC708022000EB07440D2DC8
:109D10000AD00B2D1DD0B5421FD11B49204642460B
:109D2000BDE8F84307F046BB20464246174907F016
:109D300041FB1321404676DF00281ED008F096F83C
:109D4000024601B020464346BDE8F04310A107F0AB
:109D500038BB204642461C49E2E7284608F086F810
:109D60000246012000EB0740434618A107F029FBFB
:109D70002846BDE8F84300F0EDB9BDE8F8830000DF
:109D8000B0C9030060C9030048B10300D4B00300A8
:109D900073645F626C655F6761705F646973636F52
:109DA0006E6E65637428292072657475726E6564C1
:109DB000202573206F6E20636F6E6E5F68616E6426
:109DC0006C652025642E000094B103004173736517
:109DD0007274696E672E20706D5F636F6E6E5F7355
:109DE000656375726528292072657475726E656485
:109DF000202573206F6E20636F6E6E5F68616E64E6
:109E00006C652025642E000010B560B159B1027850
:109E10000B785208B2EB530F05D10622401C491CA7
:109E2000FDF747FD08B1002010BD012010BD8007DF
:109E300001D00020704701207047C3688B4206D8CC
:109E400011440069491E814201D801207047002059
:109E50007047000010B50BF0F1FA002001F098FCFB
:109E60000321094800F0CEFD08B100F073F907485E
:109E70000749BDE81040401AC008032101EB00402B
:109E800004A107F093BA0000102E002020CA03009E
:109E900060C903004164766572746973696E670016
:109EA00010B501220221002001F024FD08B107288D
:109EB00010D107220221012001F01CFD08B1072862
:109EC00008D100210A22084601F014FD08B1072834
:109ED00000D1002010BD70B58CB015460E46002391
:109EE0006C46C3F10F01415CE1545B1C102BF8D3AD
:109EF0000D2104F11000FDF7BCFC0020C0F10F02A1
:109F0000315C2244401C11740328F7D3684646DFB5
:109F10000020C0F10F01214491F820102954401C69
:109F20000328F6D30CB070BD70B506462648274A04
:109F30000D46801AC0080978032202EB004459B18B
:109F400001292ED002293DD1204621A107F02EFA69
:109F5000BDE870400BF072BA204621A107F026FA46
:109F6000244805F09DFD08B100F0F4F82248FDF703
:109F70008BFC38B1204A00211E4805F0DFFD08B1F6
:109F800000F0E8F8698805F10E02304600F050FE56
:109F900008B100F0DFF82046BDE8704017A107F0D7
:109FA00005BA20461AA107F001FA4FF0A041D1F8F6
:109FB00004054FF480128243C1F8082500F4801094
:109FC000C1F80C0570BD000020CA030060C9030081
:109FD000446973636F6E6E65637465642E00000080
:109FE000446973636F7665727920636F6D706C6519
:109FF00074652E006830002074740300436F6E6E29
:10A00000656374656420746F2064657669636500B8
:10A01000526563656976696E6720646174612E00BC
:10A02000022001F09BBB00000149C97800F080BF0D
:10A030005C2C002070B50024064D06E06868012104
:10A0400010F8340007F054FF641C28788442F5D3DC
:10A05000002070BDB82C0020F8B515460C46064609
:10A06000052A01D20720F8BD08F03EF818B908F01B
:10A0700003F80028F7D1124900224E600C708D6061
:10A08000C1E90422C1E906220E4D0DE006EBC40031
:10A090002968009181788DF8011000780A4A694694
:10A0A00007F078FF0028DED1641EE4B2EED2BDE8EE
:10A0B000F84004480021054A001D00F057B8000090
:10A0C000B82C00202078030099D30200FDC40200C0
:10A0D00072B607F02BFA00BF07F04EF80028FBD14C
:10A0E00011481249401AC408012000EB044010A195
:10A0F00007F05CF911480068C00700D000BE0220DC
:10A1000000EB04400EA107F051F9BFF34F8F0B484D
:10A11000E43801680E4A01F4E06111430160BFF3C5
:10A120004F8F00BFFDE7000020CA030060C9030095
:10A13000466174616C206572726F7200F0ED00E030
:10A1400053797374656D2072657365740000000047
:10A150000400FA050EB500210091CDE901106A4610
:10A1600044F20100FFF7B4FF0EBD0000084B9B78DE
:10A1700023B12AB120B10068037C1BB108207047CD
:10A1800007207047002303744174426118467047EA
:10A19000683C002070B50BF0A9F8104800240B2192
:10A1A000047044700E4D817014206C602C706C70C3
:10A1B000FFF772FB06211420FFF78FFB1420FFF737
:10A1C00076FB0848046006211120FFF786FB05484E
:10A1D000001F0068A860002070BD0000683C0020DF
:10A1E000D82C0020081501402DE9FC47DFF87890B5
:10A1F00099F8023073B368B3052902D20720BDE88D
:10A20000FC87436933B3437C012B25D000270446E8
:10A210000025884616468DF80050684600F038F84C
:10A2200001A80CF053FEC8B1012101700F49446030
:10A230000968C0E90218C0E904769DF8040089F8AD
:10A2400001009DF8000000F047F81420FFF73AFBEA
:10A250002846D4E70820D2E70F46D8E704259DF822
:10A26000000000F039F8F3E7683C002004150140D5
:10A270000649897839B130B1416921B100210174B1
:10A2800002210CF0ABB8082070470000683C0020A9
:10A2900030B5EFF3108172B60D4A9468012324B1F2
:10A2A0000370002900D162B630BD93604FF0E02307
:10A2B000D3F88051074C25401560C3F88041D3F88E
:10A2C000844154605A17C3F8842100220270E8E7E1
:10A2D000743D0020FC06FFBD0B498A68002A11D09E
:10A2E00000280FD1EFF3108072B60B684FF0E02218
:10A2F000C2F800314B68C2F8043100228A6000289D
:10A3000000D162B670470000743D00202DE9F04195
:10A31000064608680C46411C4FF0A0474FF0010567
:10A3200006D005FA00F1C7F80815206806F0E2FD2E
:10A330006068411C02D0002106F0CAFD3168A069A6
:10A34000C1F82405607D227D31681043C1F86C0599
:10A35000D4E900123068C0F81425C0F80C15207D2F
:10A36000012815D1A068411C02D0002106F0B0FDE3
:10A37000E068411C05D08540C7F80855E06806F044
:10A38000B9FDD4E902123068C0F80825C0F81015EC
:10A39000BDE8F0812DE9F041064608680C46411CF5
:10A3A0004FF0A0474FF0010506D005FA00F1C7F8BD
:10A3B0000815206806F0A8FD6068411C02D0002145
:10A3C00006F08FFD3168A069C1F82405607D217D0C
:10A3D00032680843C2F86C05D4E900123068C0F84E
:10A3E0000C15C0F81425207D012815D1A068411C4A
:10A3F00002D0002106F075FDE068411C05D08540C3
:10A40000C7F80855E06806F07FFDD4E9021230680D
:10A41000C0F80825C0F81015BDE8F08103F042BE71
:10A420002DE9F047814605884A484FF000088AB078
:10A4300001784246284600F093FD99F80500400750
:10A4400001D4002176E005F58077B8B201AB012296
:10A45000072109F05BFA04003F48404A4FF0010130
:10A46000A0EB02004FEAD00001EB00460AD02046E4
:10A4700007F0FCFC024630462B46394906F0A1FFA6
:10A48000214629E0284603F049FA4FF6FF710446B9
:10A4900088422BD18A46029803F0AAF90446504517
:10A4A00010D00146284603F019FA2846FFF7BCFDF4
:10A4B000E0B928460BF078F92846FFF7B5FD0028EB
:10A4C000BFD013E009F0EEFB0446504508D13046FA
:10A4D00024A106F06BFF042128460BF093F9B0E7A6
:10A4E0000146284603F0FAF94FF00108B8B22246B7
:10A4F000072109F083FA07001BD0862F1ED007F032
:10A50000B5FC024630462B462349009406F061FF15
:10A51000394628460BF076F90021484609F0EAF85A
:10A52000B8F1000F02D0204603F0E2F90AB0BDE80E
:10A53000F0870121484609F0DDF8F7E718221749AE
:10A5400003A8FDF77BF9ADF80E5003A802F000FA5E
:10A55000EFE700005C2C0020B8C9030060C90300CD
:10A560004CB40300436F756C64206E6F7420616C93
:10A570006C6F63617465206E657720706565725FCE
:10A58000696420666F7220696E636F6D696E672003
:10A59000626F6E642E000000F8B403007C76030046
:10A5A0002DE9FC47002517880646158090F82D00F8
:10A5B0001446894630B13A462146484600F084FDAB
:10A5C000051E09D1B0784FF00C0A18B32088C84690
:10A5D000001DB84202D95046BDE8FC87684679DFC5
:10A5E0000028F9D12088032108F8001020881921BB
:10A5F000401C80B2208008F800102088401C80B2E7
:10A60000208000EB0801BDF800000CF07FFB2188E2
:10A6100008442080F0780222C8B1218896F90330DE
:10A6200001F1030C4846BC45D5D8425421884FF06F
:10A63000010C491C89B2218000F801C02188491C05
:10A6400089B2218009F801302088401C2080706880
:10A65000B8B1218890F9003001F1030C4846BC459F
:10A66000B9D8425421880A22491C89B22180425417
:10A670002188491C89B2218009F801302088401CBA
:10A680002080308950B1CDE900474B460622022197
:10A6900006F108000CF032FC051E9DD1308A50B145
:10A6A000CDE900474B460722032106F110000CF0CC
:10A6B00025FC051E90D1308B50B1CDE900474B46AB
:10A6C0001522142106F118000CF018FC051E83D188
:10A6D000306A30B13B462246494601F086FC051EF1
:10A6E000DBD1706A30B13B462246494603F07CFF1D
:10A6F000051ED2D196F82C0038B13B462246494679
:10A7000030460BF059F9051EC7D1307838B13B46B9
:10A7100022464946304604F081FD051EBDD128463B
:10A720005AE7F8B506464FF000001500ADF80000F6
:10A7300015D009236A46304600F025F80446BDF8D6
:10A740000000064458B154B12846FDF79DF8A042D8
:10A7500005D1224631462846FDF7ABF808B1002066
:10A76000F8BD0120F8BD18B504460020ADF8000082
:10A7700013466A46204600F006F8002802D0BDF8CD
:10A780000000204418BD70B588B182B1002415883E
:10A7900003E0065D641C3444A4B2A54203D8061944
:10A7A00076789E4201D08C42F3D38C4201D30020B4
:10A7B00070BDA11C1180005D401E80B270BD2DE9EE
:10A7C000F0418AB006460020ADF814001346102070
:10A7D00088468DF804000D4606AA01A9184664DFD4
:10A7E000A6B398BB9DF80400022804D0042807D023
:10A7F000102839D10DE003208DF81000022003E06D
:10A8000005208DF8100004208DF81100002404AFFD
:10A810000FE007208DF810000620F5E73B5D05AA44
:10A8200041463046FFF7AFFF641CE4B20546022CF8
:10A8300004D2BDF814000028F0D003E0BDF81400E5
:10A84000002812D080B2064400240BE00CE030193E
:10A850009DF8042006A9FDF72CF848B19DF80400E6
:10A86000204484B2AC42F2D300200AB0BDE8F081AB
:10A870000120FAE780F83010704700002DE9F0471A
:10A880000D00044606D02CB195F87A000026012868
:10A8900003D006E00E20BDE8F08795F89800012867
:10A8A00029D0D5F8A000042825D0D5F89C0004288C
:10A8B00021D04FF00109A6702C2205F17801201D4E
:10A8C000FCF7BCFF84F83060D5F8A4006063D5F8CD
:10A8D000A800A0634FF6FF70A4F8480204F50D70BD
:10A8E000C4F84402C4F84A62A4F84E6284F8506284
:10A8F000207810B104E00720CDE7FF2084F8540051
:10A9000004F15501C4F8341294F82400EE274FF0F6
:10A910001F0801281FD0A4F8388200BF04F50E726A
:10A920002846FFF73DFE0028B5D115F13C0F18D0A1
:10A9300004F24311C4F83C1294F8240001280DD00D
:10A94000A4F8408204F5107205F13C00FFF728FEE0
:10A950000028A0D109E0A4F83872DFE7A4F840721B
:10A96000F0E7C4F83C62A4F8406284F85190208B70
:10A97000A4F8480084F83C90266484F8506060692C
:10A9800060644D4604F13C02002104F1540072DF82
:10A99000002880D125707EE710B50288102A1BD0D0
:10A9A000112A20D0262A1DD1007A0C46012801D078
:10A9B000022817D1A0780521401CB0FBF1F201FB61
:10A9C0001201204600F01EF800280BD0A16B0029D0
:10A9D00008D0BDE810400847C27B012A02D1808818
:10A9E000A1F8480210BD0C46002184F8521280885C
:10A9F000B4F848128842F5D120790028F2D101211B
:10AA0000DFE770472DE9F05F044600780F4698B104
:10AA1000A7700025C4F84A52A4F84E5284F8505248
:10AA2000A079012608B1012F09D0E07980B1012F6A
:10AA300005D0022F03D00BE00820BDE8F09F616B2A
:10AA400021B184F851620820884701E084F851520E
:10AA500004F24B2100200A5C0AB1304603E0401C9E
:10AA60000628F8D300204FF002084FF0030B012F07
:10AA700006D0022F0CD0032F0FD0042F15D110E0D9
:10AA8000A17929B194F8241011B908B130460DE02C
:10AA9000E17911B108B1404608E0207A08B1584682
:10AAA00004E0607A08B1042000E02846A070616BE1
:10AAB00041B1032801D0042804D1607910B194F881
:10AAC0005202A0B184F8535204F13C001821074609
:10AAD000FCF7CFFE04F12C0084F83C60814609F0BD
:10AAE0000DFA58B194F82C0084F8510008E084F86D
:10AAF000545284F8536207208847E5E784F8516090
:10AB000094F8240050B1484609F0F8F920B194F8BF
:10AB1000280084F8520001E084F8526084F8505014
:10AB2000A27804F24A2104F50D794FF0060A052AAD
:10AB300062D2DFE802F07A030F22410084F831602C
:10AB4000C4F84452C4E9101584F83C808020A4F86D
:10AB5000480053E084F8318094F82420384612B13C
:10AB60000722027001E080F800B0228A8281C4F8D6
:10AB700044524160E168B96040E06069B860208B90
:10AB8000B88194F824003D4610B184F83CA001E05F
:10AB900084F83C6020460CF075F950B185F81480BB
:10ABA0000421204602F0A8F830BB052184F83110BA
:10ABB00020E084F831B01DE0E069B860208CB881F5
:10ABC00094F824003D4610B184F83CA001E084F8DC
:10ABD0003C6020460CF056F948B185F814800421F9
:10ABE000204602F089F838B984F831A002E0042048
:10ABF00084F83100C4F84492A07878B13A4604F160
:10AC00005400D4F8441272DF00287FF416AF94F891
:10AC1000301094F8540073DF0028F6D1616B11B145
:10AC200094F831008847002007E784F83150F5E7B1
:10AC300048B141802AB1118881805188C1809188B2
:10AC40000181002070470E207047000030B5124B84
:10AC50000D4604000FCB85B08DE80F0019D0C5B1AB
:10AC60002146684662DF002811D120788DF8120055
:10AC700042F20150ADF810004FF6FF706080286876
:10AC8000E0600020A080208104A800F093F905B0C6
:10AC900030BD0E20FBE700000077030010B5024630
:10ACA00086B0080019D0002A17D041884FF6FF73EC
:10ACB000994202D09488A1420FD11488112C0CD152
:10ACC00092888A4209D1C168002906D002218DF8F4
:10ACD00000104380C2686946904706B010BD30B589
:10ACE00085B00C46054614216846FCF7C2FD207865
:10ACF00004F10E01002835D1A08842F201529042A1
:10AD000030D1A0792A7890422CD100221AE002EBAF
:10AD1000C20031F81030A3F20253B3F5005302D051
:10AD2000012B0ED108E001EB40000389ADF80E3095
:10AD30004089ADF8100004E001EB40000089ADF857
:10AD40001200521C207A9042E1D8E868002809D00D
:10AD50006088ADF8020000208DF80000EA686946BE
:10AD60002846904705B030BD3EB503000DD01448CD
:10AD7000144C001BC008032404EB0040142A06D91D
:10AD800011A106F013FB07203EBD0E203EBD5C88DE
:10AD9000A4F57F45FF3D0DD0104831C88DE8310046
:10ADA00018890291ADF80200ADF80620588869466E
:10ADB000A3DF3EBD0AA106F0F9FA08203EBD00005F
:10ADC000C8C9030060C90300436F6E74656E7420C8
:10ADD000746F6F206C6F6E672E0000001C7703008D
:10ADE000436F6E6E656374696F6E2068616E646C2C
:10ADF0006520696E76616C69642E000070B5040090
:10AE000012D001461C221448FCF718FD1248134DBD
:10AE10000560206850B17ADF002806D120680168FB
:10AE200029604068686005E00E2070BD0B487BDF3C
:10AE30000028FAD108484FF6FF711438084A20F864
:10AE4000041B0549343901600021FFF78FF9002800
:10AE5000EBD0032070BD0000B43100209C2B0020FB
:10AE60001D6E030010B5044600F09AF8002805D0C6
:10AE70002146BDE81040024804F0CDBA10BD0000E4
:10AE8000E031002070B515460E4604460CF006F879
:10AE9000002809D0054800EB840080692A46314625
:10AEA000BDE8704001F054BF70BD0000D0310020FB
:10AEB00010B5044600F074F8002805D02146BDE81E
:10AEC0001040024804F0A7BA10BD0000E431002091
:10AED00070B50546002400F063F838B129460448EF
:10AEE00004F099FA08B1022400E00124204670BD64
:10AEF000DC31002070B50546002400F051F838B16F
:10AF00002946044804F087FA08B1022400E001242D
:10AF1000204670BDD831002010B51821034804F038
:10AF200055FA182800D0C0B210BD0000D031002062
:10AF300070B505460C4608460BF0B0FF60B12846D8
:10AF400000F02EF840B10548294600EB8400BDE82A
:10AF50007040183004F05FBA002070BDD03100207E
:10AF600070B5054614460E4608460BF097FF0028BC
:10AF700012D0284600F014F800280DD007482946C2
:10AF800000EB860018301CB1BDE8704004F04EBAEA
:10AF9000BDE8704004F0FFB970BD0000D031002062
:10AFA000142801D3002070470146014804F033BA49
:10AFB000D431002070B540B10C4D297839B1044628
:10AFC0000AF05CF928B1002070BD0E2070BD082089
:10AFD00070BDE868062807D20549226801EB8001A8
:10AFE000401C0A60E860EEE7042070BDA42B00203E
:10AFF0004832002040B1054900220123CA600B708D
:10B00000C1E90102104670470E207047A42B0020B2
:10B0100070B504002DD000292BD0204800780028DE
:10B0200027D020880D46112815D0302804D032288A
:10B0300007D033281ED109E0211D284608F048F921
:10B0400018E0211D284607F0E3FE13E0211D2846E5
:10B0500007F0DAFF0EE0A088B5F8CA12884209D1DD
:10B06000002085F8C70285F8C8024FF6FF70A5F8E2
:10B07000CA0270BD95F8C8020028FAD0208830288E
:10B08000F7D34F28F5D8A088B5F8CA128842F0D176
:10B090002846BDE8704001F0E3BA0000A42B002070
:10B0A00048B1084A137843B1D26832B190F8C72248
:10B0B0002AB1112070470E2070470820704701F018
:10B0C000CFBA0000A42B00207CB5054608880C46AA
:10B0D0000930904201D90C207CBD68466DDF002804
:10B0E000FAD121880820685420881B21401C80B296
:10B0F000208029542088401C80B220802844DDF81C
:10B1000001100160BDF8051081802088801D80B28B
:10B1100020809DF80010490800D001212954208882
:10B12000401C208000207CBD2DE9F8430446808827
:10B130008046FFF7CDFE07462088102818D1DFF89B
:10B140008C9004F10806002519F8351069B109EB57
:10B15000C500327841784908B1EB520F05D106227B
:10B16000711C801CFCF7A5FB90B16D1C022DEBD36C
:10B170002146404607F0A4FC012F21D0022F02D027
:10B1800020881D2817D12046BDE8F84307F0E2BB10
:10B19000CDF80080012F10D00DA310A21148124944
:10B1A000401AC008032101EB0040104906F011F9D4
:10B1B0001321404676DFBDE8F88308A304A2EDE73B
:10B1C0002046BDE8F84307F0BFBD00000431002071
:10B1D0005045524950484552414C000043454E5459
:10B1E00052414C0020CA030060C9030070A803004C
:10B1F00010B51A4C0188606810290ED011292BD186
:10B20000401E606028D1FEF74BFE002824D0216844
:10B21000002921D0BDE810400847D0B90021012203
:10B22000084600F067FB08B107280FD1072202216A
:10B23000012000F05FFB08B1072807D1042202219A
:10B24000002000F057FB20B1072802D0216801B18F
:10B2500088476068401C606010BD0000942B00208F
:10B260002DE9F04701883B4E40F2F3194FF6FF7588
:10B2700010291BD011293ED0122954D0502946D173
:10B28000C188F289841D914241D1618902293ED150
:10B290008688304602F008FC050038D004F10C0026
:10B2A00000F091F9A8B3294630464EE0C17B87886B
:10B2B000044601292BD1A846284602F0F5FB0500DB
:10B2C00017D02F8000202872234843464A46016841
:10B2D000C5F80A104068C5F80E0004F1100105F128
:10B2E0000A0002F0A1FC6872F08900280FD12946FB
:10B2F0002AE0042013E0808802F0D6FB040006D088
:10B300006068FEF7B5FF08B10AF060FA2580BDE875
:10B31000F087FFE76868FEF7ABFF0028F7D0BDE8CD
:10B32000F0470AF053BA87880646384602F0BCFB5D
:10B330000400ECD02B464A4606F1080104F10A004D
:10B3400002F072FC607221463846BDE8F04700F01A
:10B3500093BE0000B43100209C2B00202DE9F04F5B
:10B360000746858802883D48012197B08346102A08
:10B3700009D0112A49D01A2A6CD1387AB1EB101FA2
:10B3800045D2012244E0354C083CA068C0430B90F4
:10B3900061680BA804F066F80B990CA800F006FE93
:10B3A0002C220CA96846FCF749FA0026E946A0467B
:10B3B00010E000BF09EB46005FF00004B0F804A005
:10B3C00008EB84005146001D03F0E5FF641C1D2CB2
:10B3D000F6D3761C0098B042ECD8142D05D317B0E4
:10B3E0000420BDE8F04FFEF7B5BE2946584604F0EC
:10B3F0001DF8294608F1040004F018F8F87B01282C
:10B4000028D016482946001D15E029461AE00022DA
:10B410000221B1EB101F01D2012600E000260F49E6
:10B42000083901F11000041D294682B103F0FEFF26
:10B4300036B12946204617B0BDE8F04F03F0F6BFFD
:10B440002946204617B0BDE8F04F03F0A4BF03F033
:10B45000A2FFF5E717B0BDE8F08F0000D83100205B
:10B4600010B504460748007800280AD0204602F0AC
:10B4700031F920460AF0E4FA2046BDE8104001F018
:10B4800077BD10BDEC2B002070B50E4604461D485C
:10B490001D4986B0401AC008032101EB00401BA1E2
:10B4A00005F084FF4CB3002504200095ADF80000A2
:10B4B000ADF802500196E189E08A6A46ACDF0028C7
:10B4C00019D1E08AA0F57F41FF3918D00295039584
:10B4D00004950595E089ADF8080001208DF80A0073
:10B4E000BDF80200ADF80C000198CDF810D0059021
:10B4F000E08A02A9AEDF06B070BD0E20FBE708208F
:10B50000F9E7000020CA030060C90300496E206209
:10B510006C655F736D6C5F637573746F6D5F76617F
:10B520006C75655F7570646174652E200D0A00008E
:10B5300030B585B00D46040024D01DB328682060C6
:10B540004FF6FF70E082104B012060760FCB8DE844
:10B550000F0004F11801684662DF002810D1207E38
:10B560008DF8120041F20540ADF81000221D04A92B
:10B570000120A8DF002803D12946204600F0FEFD67
:10B5800005B030BD0E20FBE7F07603000A4608B593
:10B59000014610460A88102A07D0112A09D0502ADD
:10B5A00010D1BDE8084007F009BF8988C182022197
:10B5B00003E04FF6FF71C18203218DF8001002688D
:10B5C0006946904708BD007800F0010070472DE9FA
:10B5D000F04FADF5477D14460E468246B2F5C07F6A
:10B5E00005D96FF037000DF5477DBDE8F08F4FF4BA
:10B5F000D0716846FCF73DF968A803F008FC200EFE
:10B600008DF81000200C8DF81100200A8DF8120022
:10B6100030208DF8170006AD8DF8134022463146D4
:10B620002846FCF70BF98020285504F11905002065
:10B63000BEA90854401C2028FBDB4FF4807B5A46EF
:10B6400068A803F0E9FB0026B1466F46CDF8B89232
:10B65000CDF8BC92CDF8C0922C460DF52E78CDF8E1
:10B66000C49215E0002041463B5C0A5C5A400A54F3
:10B67000401C1028F8DB1037102C01D3102000E0FC
:10B680002046241AAEAB1A46012168A802F0DEFF5C
:10B69000002CE7D1B2A830441022AEA9FCF7CEF8B6
:10B6A0009DF803001036401C8DF80300302ECCDBD3
:10B6B0005A46B2A968A803F0AFFBBAAD56462B466E
:10B6C0001A46012168A802F0C1FF1022294630461F
:10B6D000FCF7B4F810341036302CF0DB68A803F017
:10B6E0008BFB00207FE700000649095C4FF0A0407B
:10B6F000D0F81005C84010F0010000D0012080F003
:10B70000010070477E7403002DE9FC410646C00726
:10B710004FF000050ED0104F00240122385D009537
:10B7200000231146019505F067FB641C042CF4D33B
:10B7300000F046F8B0070DD5074E0024361D002254
:10B74000305D032300951146019505F055FB641CFF
:10B75000042CF4D3BDE8FC817A74030007490B5C28
:10B760004FF0A041D1F804250120984020EA0203BF
:10B77000C1F808351040C1F80C0570477A74030011
:10B780000249085C012105F0E1BB00007A74030066
:10B790000249085C002105F0D9BB00007A7403005F
:10B7A0000649095C4FF0A040D0F80405C84010F0ED
:10B7B000010000D0012080F0010070477A7403007E
:10B7C00010B500242046FFF7DBFF641C042CF9D3DE
:10B7D00010BD10B500242046FFF7DAFF641C042CCE
:10B7E000F9D310BD10B50246064B4FF0FF300021D3
:10B7F0005C5C944201D1084610BD491C0429F7D372
:10B8000010BD00007E74030070B50C4E0C004FF0AC
:10B81000000530600BD0012000F05AF808B102207A
:10B8200004E0002000F054F800B10B202070706894
:10B8300010B9FEF735FB0546284670BD942B002055
:10B840002DE9F0470D468146FFF7CCFF044604285A
:10B8500036D2DFF874801B481C4EA8F10C0725B3C4
:10B86000012D0ED0022D2BD104EB4400304445783D
:10B87000002D25D0B968002922D02846BDE8F04720
:10B88000084704EB4401755C0E44717849B10E4AD7
:10B890004FF40041093A8068FEF7A6FC08B987F822
:10B8A0000390B17808F80410E2E78068FEF7E0FC46
:10B8B00004EB4401314418F804008D78A842D7D035
:10B8C000BDE8F08784740300902B002054310020E1
:10B8D000042801D2FFF708BF002070470E2805D0CA
:10B8E0000F2805D15FF0000007F0DABC0120FBE76C
:10B8F0007047000070B50023042810D20D4D00EBF6
:10B900004004012A02D101290CD00022094E00EB8B
:10B910004000304461B1012906D0022906D0072336
:10B92000184670BD0E30C2B22A55F9E74270F7E7EB
:10B930008270F5E75431002070B506461E48002499
:10B94000C0E90161B00720D5002501221146284633
:10B95000FFF7D0FF6D1C0446042D02D2002CF4D05A
:10B9600013E094B940F2666204211448FEF774FBB8
:10B9700004000AD1FEF75EFB040006D10F48104A0E
:10B980000021001FFEF7F2FB0446F00712D0012051
:10B99000FFF7BAFE74B909480A4A00210C38FEF7CD
:10B9A000E5FB040006D10548074A01210838FEF7E7
:10B9B000DDFB0446204670BD842B002090740300FC
:10B9C00059BC020045DD020021A002002DE9F05F14
:10B9D0006E4C054600266078B34618B184F801B075
:10B9E00002F098F96A4F4FF47A694FF4C87A4FF031
:10B9F0000108182D69D2DFE805F00C1313384754FD
:10BA0000696E727B727BC58484848484B3B6B9BC4E
:10BA1000C5C502F07FF93868FEF72AFC06465CE0EF
:10BA20000020FFF7BDFE00284FF0000008D0FFF710
:10BA3000A7FE022D02D14FF4E16008E0484606E07F
:10BA4000FFF7A6FE022D01D1C82000E05046410CB0
:10BA5000C0034FF4FA72801841F1000125705200C2
:10BA60000023FBF7A7FE01462AE00020FFF798FE1F
:10BA700000284FF0000004D0FFF782FE4FF448701A
:10BA8000E5E7FFF785FEDFE70020FFF789FE0028E6
:10BA90004FF0000002D0FFF773FECFE7FFF778FE0C
:10BAA000D4E70020FFF77CFE00284FF0000002D012
:10BAB000FFF766FE01E0FFF76BFE257041F69A1175
:10BAC00000223868FEF790FB064646E00020FFF7AC
:10BAD00045FE257008E0002051E025703DE084F827
